{
  "_format": "hh3-artifact-1",
  "contractName": "SanjeevaniEscrow",
  "sourceName": "contracts/SanjeevaniEscrow.sol",
  "abi": [
    {
      "inputs": [],
      "stateMutability": "nonpayable",
      "type": "constructor"
    },
    {
      "anonymous": false,
      "inputs": [
        {
          "indexed": false,
          "internalType": "uint256",
          "name": "id",
          "type": "uint256"
        },
        {
          "indexed": false,
          "internalType": "string",
          "name": "name",
          "type": "string"
        },
        {
          "indexed": false,
          "internalType": "uint256",
          "name": "hourlyRate",
          "type": "uint256"
        },
        {
          "indexed": false,
          "internalType": "uint256",
          "name": "cautionDeposit",
          "type": "uint256"
        }
      ],
      "name": "EquipmentRegistered",
      "type": "event"
    },
    {
      "anonymous": false,
      "inputs": [
        {
          "indexed": false,
          "internalType": "uint256",
          "name": "loanId",
          "type": "uint256"
        },
        {
          "indexed": false,
          "internalType": "address",
          "name": "borrower",
          "type": "address"
        },
        {
          "indexed": false,
          "internalType": "address",
          "name": "lender",
          "type": "address"
        },
        {
          "indexed": false,
          "internalType": "uint256",
          "name": "equipmentId",
          "type": "uint256"
        },
        {
          "indexed": false,
          "internalType": "uint256",
          "name": "quantity",
          "type": "uint256"
        },
        {
          "indexed": false,
          "internalType": "uint256",
          "name": "depositAmount",
          "type": "uint256"
        }
      ],
      "name": "LoanCreated",
      "type": "event"
    },
    {
      "inputs": [
        {
          "internalType": "uint256",
          "name": "_loanId",
          "type": "uint256"
        }
      ],
      "name": "confirmDelivery",
      "outputs": [],
      "stateMutability": "nonpayable",
      "type": "function"
    },
    {
      "inputs": [
        {
          "internalType": "address",
          "name": "_lender",
          "type": "address"
        },
        {
          "internalType": "uint256",
          "name": "_equipmentId",
          "type": "uint256"
        },
        {
          "internalType": "uint256",
          "name": "_quantity",
          "type": "uint256"
        },
        {
          "internalType": "uint256",
          "name": "_durationHours",
          "type": "uint256"
        }
      ],
      "name": "createLoanRequest",
      "outputs": [],
      "stateMutability": "payable",
      "type": "function"
    },
    {
      "inputs": [],
      "name": "equipmentCounter",
      "outputs": [
        {
          "internalType": "uint256",
          "name": "",
          "type": "uint256"
        }
      ],
      "stateMutability": "view",
      "type": "function"
    },
    {
      "inputs": [
        {
          "internalType": "uint256",
          "name": "",
          "type": "uint256"
        }
      ],
      "name": "equipments",
      "outputs": [
        {
          "internalType": "uint256",
          "name": "id",
          "type": "uint256"
        },
        {
          "internalType": "string",
          "name": "name",
          "type": "string"
        },
        {
          "internalType": "uint256",
          "name": "hourlyRate",
          "type": "uint256"
        },
        {
          "internalType": "uint256",
          "name": "cautionDeposit",
          "type": "uint256"
        },
        {
          "internalType": "bool",
          "name": "exists",
          "type": "bool"
        }
      ],
      "stateMutability": "view",
      "type": "function"
    },
    {
      "inputs": [],
      "name": "loanCounter",
      "outputs": [
        {
          "internalType": "uint256",
          "name": "",
          "type": "uint256"
        }
      ],
      "stateMutability": "view",
      "type": "function"
    },
    {
      "inputs": [
        {
          "internalType": "uint256",
          "name": "",
          "type": "uint256"
        }
      ],
      "name": "loans",
      "outputs": [
        {
          "internalType": "uint256",
          "name": "loanId",
          "type": "uint256"
        },
        {
          "internalType": "address",
          "name": "borrower",
          "type": "address"
        },
        {
          "internalType": "address",
          "name": "lender",
          "type": "address"
        },
        {
          "internalType": "uint256",
          "name": "equipmentId",
          "type": "uint256"
        },
        {
          "internalType": "uint256",
          "name": "quantity",
          "type": "uint256"
        },
        {
          "internalType": "uint256",
          "name": "startTime",
          "type": "uint256"
        },
        {
          "internalType": "uint256",
          "name": "expectedDuration",
          "type": "uint256"
        },
        {
          "internalType": "uint256",
          "name": "depositAmount",
          "type": "uint256"
        },
        {
          "internalType": "uint256",
          "name": "rentAmount",
          "type": "uint256"
        },
        {
          "internalType": "enum SanjeevaniEscrow.LoanStatus",
          "name": "status",
          "type": "uint8"
        }
      ],
      "stateMutability": "view",
      "type": "function"
    },
    {
      "inputs": [
        {
          "internalType": "uint256",
          "name": "_loanId",
          "type": "uint256"
        }
      ],
      "name": "markReturned",
      "outputs": [],
      "stateMutability": "nonpayable",
      "type": "function"
    },
    {
      "inputs": [],
      "name": "owner",
      "outputs": [
        {
          "internalType": "address",
          "name": "",
          "type": "address"
        }
      ],
      "stateMutability": "view",
      "type": "function"
    },
    {
      "inputs": [
        {
          "internalType": "string",
          "name": "_name",
          "type": "string"
        },
        {
          "internalType": "uint256",
          "name": "_hourlyRate",
          "type": "uint256"
        },
        {
          "internalType": "uint256",
          "name": "_cautionDeposit",
          "type": "uint256"
        }
      ],
      "name": "registerEquipment",
      "outputs": [],
      "stateMutability": "nonpayable",
      "type": "function"
    }
  ],
  "bytecode": "0x6080604052348015600e575f5ffd5b505f80546001600160a01b03191633179055610ddb8061002d5f395ff3fe608060405260043610610084575f3560e01c80638f2f3a65116100575780638f2f3a6514610126578063a6efd62014610139578063df44996b14610169578063e1ec3c681461017e578063fd84cb971461020e575f5ffd5b806334d9289e146100885780636298913f146100b0578063711f87e3146100d15780638da5cb5b146100f0575b5f5ffd5b348015610093575f5ffd5b5061009d60025481565b6040519081526020015b60405180910390f35b3480156100bb575f5ffd5b506100cf6100ca3660046109bc565b61022d565b005b3480156100dc575f5ffd5b506100cf6100eb3660046109e7565b610352565b3480156100fb575f5ffd5b505f5461010e906001600160a01b031681565b6040516001600160a01b0390911681526020016100a7565b6100cf610134366004610aa7565b610429565b348015610144575f5ffd5b506101586101533660046109bc565b6107e1565b6040516100a7959493929190610b18565b348015610174575f5ffd5b5061009d60015481565b348015610189575f5ffd5b506101f86101983660046109bc565b600460208190525f9182526040909120805460018201546002830154600384015494840154600585015460068601546007870154600888015460099098015496986001600160a01b03968716989590961696939492939192909160ff168a565b6040516100a79a99989796959493929190610b63565b348015610219575f5ffd5b506100cf6102283660046109bc565b61089a565b5f81815260046020526040812080549091036102815760405162461bcd60e51b815260206004820152600e60248201526d131bd85b881b9bdd08199bdd5b9960921b60448201526064015b60405180910390fd5b60018101546001600160a01b031633146102dd5760405162461bcd60e51b815260206004820152601860248201527f4f6e6c7920626f72726f7765722063616e2072657475726e00000000000000006044820152606401610278565b6001600982015460ff1660048111156102f8576102f8610b4f565b146103375760405162461bcd60e51b815260206004820152600f60248201526e4c6f616e206e6f742061637469766560881b6044820152606401610278565b6009810180546002919060ff19166001835b02179055505050565b60018054905f61036183610bf3565b90915550506040805160a08101825260018054808352602080840188815284860188905260608501879052608085018490525f9283526003909152939020825181559251919291908201906103b69082610c8f565b506040828101516002830155606083015160038301556080909201516004909101805460ff191691151591909117905560015490517f79ce7df5297419e10bc67267aa89d940b83ced5dca1b697190fd2b4ac2861c039161041c91869086908690610d4a565b60405180910390a1505050565b5f8381526003602052604090206004015460ff166104895760405162461bcd60e51b815260206004820152601860248201527f45717569706d656e74206e6f74207265676973746572656400000000000000006044820152606401610278565b5f82116104cb5760405162461bcd60e51b815260206004820152601060248201526f496e76616c6964207175616e7469747960801b6044820152606401610278565b5f60035f8581526020019081526020015f206040518060a00160405290815f820154815260200160018201805461050190610c0b565b80601f016020809104026020016040519081016040528092919081815260200182805461052d90610c0b565b80156105785780601f1061054f57610100808354040283529160200191610578565b820191905f5260205f20905b81548152906001019060200180831161055b57829003601f168201915b505050918352505060028201546020820152600382015460408083019190915260049092015460ff1615156060909101528101519091505f9083906105be908690610d75565b6105c89190610d75565b90505f8483606001516105db9190610d75565b90505f6105e88284610d92565b90508034146106395760405162461bcd60e51b815260206004820152601860248201527f496e636f7272656374206465706f73697420616d6f756e7400000000000000006044820152606401610278565b60028054905f61064883610bf3565b91905055506040518061014001604052806002548152602001336001600160a01b03168152602001896001600160a01b0316815260200188815260200187815260200142815260200186610e1061069f9190610d75565b815260208101849052604081018590526060015f9052600280545f908152600460208181526040928390208551815590850151600180830180546001600160a01b039384166001600160a01b0319918216179091559487015195830180549690921695909416949094179093556060840151600384015560808401518382015560a0840151600584015560c0840151600684015560e0840151600784015561010084015160088401556101208401516009840180549193909260ff1990921691849081111561077057610770610b4f565b021790555050600254604080519182523360208301526001600160a01b038b1690820152606081018990526080810188905260a081018490527f6850239cc8fa897edd78465a234c3240b84bbfb1c55cac4b85364de88ce71095915060c00160405180910390a15050505050505050565b60036020525f90815260409020805460018201805491929161080290610c0b565b80601f016020809104026020016040519081016040528092919081815260200182805461082e90610c0b565b80156108795780601f1061085057610100808354040283529160200191610879565b820191905f5260205f20905b81548152906001019060200180831161085c57829003601f168201915b50505050600283015460038401546004909401549293909290915060ff1685565b5f81815260046020526040812080549091036108ee5760405162461bcd60e51b8152602060048201526013602482015272131bd85b88191bd95cc81b9bdd08195e1a5cdd606a1b6044820152606401610278565b60018101546001600160a01b0316331480610915575060028101546001600160a01b031633145b6109505760405162461bcd60e51b815260206004820152600c60248201526b155b985d5d1a1bdc9a5e995960a21b6044820152606401610278565b5f600982015460ff16600481111561096a5761096a610b4f565b146109a75760405162461bcd60e51b815260206004820152600d60248201526c496e76616c696420737461746560981b6044820152606401610278565b6009810180546001919060ff19168280610349565b5f602082840312156109cc575f5ffd5b5035919050565b634e487b7160e01b5f52604160045260245ffd5b5f5f5f606084860312156109f9575f5ffd5b833567ffffffffffffffff811115610a0f575f5ffd5b8401601f81018613610a1f575f5ffd5b803567ffffffffffffffff811115610a3957610a396109d3565b604051601f8201601f19908116603f0116810167ffffffffffffffff81118282101715610a6857610a686109d3565b604052818152828201602001881015610a7f575f5ffd5b816020840160208301375f602092820183015297908601359650604090950135949350505050565b5f5f5f5f60808587031215610aba575f5ffd5b84356001600160a01b0381168114610ad0575f5ffd5b966020860135965060408601359560600135945092505050565b5f81518084528060208401602086015e5f602082860101526020601f19601f83011685010191505092915050565b85815260a060208201525f610b3060a0830187610aea565b6040830195909552506060810192909252151560809091015292915050565b634e487b7160e01b5f52602160045260245ffd5b8a81526001600160a01b038a8116602083015289166040820152606081018890526080810187905260a0810186905260c0810185905260e081018490526101008101839052610140810160058310610bc957634e487b7160e01b5f52602160045260245ffd5b826101208301529b9a5050505050505050505050565b634e487b7160e01b5f52601160045260245ffd5b5f60018201610c0457610c04610bdf565b5060010190565b600181811c90821680610c1f57607f821691505b602082108103610c3d57634e487b7160e01b5f52602260045260245ffd5b50919050565b601f821115610c8a57805f5260205f20601f840160051c81016020851015610c685750805b601f840160051c820191505b81811015610c87575f8155600101610c74565b50505b505050565b815167ffffffffffffffff811115610ca957610ca96109d3565b610cbd81610cb78454610c0b565b84610c43565b6020601f821160018114610cef575f8315610cd85750848201515b5f19600385901b1c1916600184901b178455610c87565b5f84815260208120601f198516915b82811015610d1e5787850151825560209485019460019092019101610cfe565b5084821015610d3b57868401515f19600387901b60f8161c191681555b50505050600190811b01905550565b848152608060208201525f610d626080830186610aea565b6040830194909452506060015292915050565b8082028115828204841417610d8c57610d8c610bdf565b92915050565b80820180821115610d8c57610d8c610bdf56fea2646970667358221220078c998c627db394df388b3ef108893fcec73c2a85dfc0f87d94979993d1771c64736f6c634300081c0033",
  "linkReferences": {},
  "deployedLinkReferences": {},
  "immutableReferences": {},
  "inputSourceName": "project/contracts/SanjeevaniEscrow.sol",
  "buildInfoId": "solc-0_8_28-0a35e28801e685bfa4d2f4bba376b85bb9831ac5"
}