{
  "_format": "hh3-artifact-1",
  "contractName": "SanjeevaniEscrow",
  "sourceName": "contracts/SanjeevaniEscrow.sol",
  "abi": [
    {
      "inputs": [],
      "stateMutability": "nonpayable",
      "type": "constructor"
    },
    {
      "anonymous": false,
      "inputs": [
        {
          "indexed": false,
          "internalType": "uint256",
          "name": "loanId",
          "type": "uint256"
        },
        {
          "indexed": false,
          "internalType": "address",
          "name": "borrower",
          "type": "address"
        },
        {
          "indexed": false,
          "internalType": "address",
          "name": "lender",
          "type": "address"
        }
      ],
      "name": "DeliveryConfirmed",
      "type": "event"
    },
    {
      "anonymous": false,
      "inputs": [
        {
          "indexed": false,
          "internalType": "uint256",
          "name": "id",
          "type": "uint256"
        },
        {
          "indexed": false,
          "internalType": "string",
          "name": "name",
          "type": "string"
        },
        {
          "indexed": false,
          "internalType": "uint256",
          "name": "hourlyRate",
          "type": "uint256"
        },
        {
          "indexed": false,
          "internalType": "uint256",
          "name": "cautionDeposit",
          "type": "uint256"
        }
      ],
      "name": "EquipmentRegistered",
      "type": "event"
    },
    {
      "anonymous": false,
      "inputs": [
        {
          "indexed": false,
          "internalType": "uint256",
          "name": "loanId",
          "type": "uint256"
        },
        {
          "indexed": false,
          "internalType": "address",
          "name": "borrower",
          "type": "address"
        },
        {
          "indexed": false,
          "internalType": "address",
          "name": "lender",
          "type": "address"
        },
        {
          "indexed": false,
          "internalType": "uint256",
          "name": "equipmentId",
          "type": "uint256"
        },
        {
          "indexed": false,
          "internalType": "uint256",
          "name": "quantity",
          "type": "uint256"
        },
        {
          "indexed": false,
          "internalType": "uint256",
          "name": "depositAmount",
          "type": "uint256"
        }
      ],
      "name": "LoanCreated",
      "type": "event"
    },
    {
      "anonymous": false,
      "inputs": [
        {
          "indexed": false,
          "internalType": "uint256",
          "name": "loanId",
          "type": "uint256"
        },
        {
          "indexed": false,
          "internalType": "uint256",
          "name": "rentPaid",
          "type": "uint256"
        },
        {
          "indexed": false,
          "internalType": "uint256",
          "name": "depositReturned",
          "type": "uint256"
        }
      ],
      "name": "LoanSettled",
      "type": "event"
    },
    {
      "anonymous": false,
      "inputs": [
        {
          "indexed": false,
          "internalType": "uint256",
          "name": "loanId",
          "type": "uint256"
        }
      ],
      "name": "ReturnRequested",
      "type": "event"
    },
    {
      "inputs": [
        {
          "internalType": "uint256",
          "name": "_loanId",
          "type": "uint256"
        }
      ],
      "name": "confirmDelivery",
      "outputs": [],
      "stateMutability": "nonpayable",
      "type": "function"
    },
    {
      "inputs": [
        {
          "internalType": "address",
          "name": "_lender",
          "type": "address"
        },
        {
          "internalType": "uint256",
          "name": "_equipmentId",
          "type": "uint256"
        },
        {
          "internalType": "uint256",
          "name": "_quantity",
          "type": "uint256"
        },
        {
          "internalType": "uint256",
          "name": "_durationHours",
          "type": "uint256"
        }
      ],
      "name": "createLoanRequest",
      "outputs": [],
      "stateMutability": "payable",
      "type": "function"
    },
    {
      "inputs": [],
      "name": "equipmentCounter",
      "outputs": [
        {
          "internalType": "uint256",
          "name": "",
          "type": "uint256"
        }
      ],
      "stateMutability": "view",
      "type": "function"
    },
    {
      "inputs": [
        {
          "internalType": "uint256",
          "name": "",
          "type": "uint256"
        }
      ],
      "name": "equipments",
      "outputs": [
        {
          "internalType": "uint256",
          "name": "id",
          "type": "uint256"
        },
        {
          "internalType": "string",
          "name": "name",
          "type": "string"
        },
        {
          "internalType": "uint256",
          "name": "hourlyRate",
          "type": "uint256"
        },
        {
          "internalType": "uint256",
          "name": "cautionDeposit",
          "type": "uint256"
        },
        {
          "internalType": "bool",
          "name": "exists",
          "type": "bool"
        }
      ],
      "stateMutability": "view",
      "type": "function"
    },
    {
      "inputs": [],
      "name": "loanCounter",
      "outputs": [
        {
          "internalType": "uint256",
          "name": "",
          "type": "uint256"
        }
      ],
      "stateMutability": "view",
      "type": "function"
    },
    {
      "inputs": [
        {
          "internalType": "uint256",
          "name": "",
          "type": "uint256"
        }
      ],
      "name": "loans",
      "outputs": [
        {
          "internalType": "uint256",
          "name": "loanId",
          "type": "uint256"
        },
        {
          "internalType": "address",
          "name": "borrower",
          "type": "address"
        },
        {
          "internalType": "address",
          "name": "lender",
          "type": "address"
        },
        {
          "internalType": "uint256",
          "name": "equipmentId",
          "type": "uint256"
        },
        {
          "internalType": "uint256",
          "name": "quantity",
          "type": "uint256"
        },
        {
          "internalType": "uint256",
          "name": "startTime",
          "type": "uint256"
        },
        {
          "internalType": "uint256",
          "name": "expectedDuration",
          "type": "uint256"
        },
        {
          "internalType": "uint256",
          "name": "depositAmount",
          "type": "uint256"
        },
        {
          "internalType": "uint256",
          "name": "rentAmount",
          "type": "uint256"
        },
        {
          "internalType": "enum SanjeevaniEscrow.LoanStatus",
          "name": "status",
          "type": "uint8"
        }
      ],
      "stateMutability": "view",
      "type": "function"
    },
    {
      "inputs": [
        {
          "internalType": "uint256",
          "name": "_loanId",
          "type": "uint256"
        }
      ],
      "name": "markReturned",
      "outputs": [],
      "stateMutability": "nonpayable",
      "type": "function"
    },
    {
      "inputs": [],
      "name": "owner",
      "outputs": [
        {
          "internalType": "address",
          "name": "",
          "type": "address"
        }
      ],
      "stateMutability": "view",
      "type": "function"
    },
    {
      "inputs": [
        {
          "internalType": "string",
          "name": "_name",
          "type": "string"
        },
        {
          "internalType": "uint256",
          "name": "_hourlyRate",
          "type": "uint256"
        },
        {
          "internalType": "uint256",
          "name": "_cautionDeposit",
          "type": "uint256"
        }
      ],
      "name": "registerEquipment",
      "outputs": [],
      "stateMutability": "nonpayable",
      "type": "function"
    },
    {
      "inputs": [
        {
          "internalType": "uint256",
          "name": "_loanId",
          "type": "uint256"
        }
      ],
      "name": "settleLoan",
      "outputs": [],
      "stateMutability": "nonpayable",
      "type": "function"
    }
  ],
  "bytecode": "0x6080604052348015600e575f5ffd5b505f80546001600160a01b031916331790556110128061002d5f395ff3fe60806040526004361061008f575f3560e01c80638f2f3a65116100575780638f2f3a6514610150578063a6efd62014610163578063df44996b14610193578063e1ec3c68146101a8578063fd84cb9714610238575f5ffd5b806334d9289e146100935780636298913f146100bb578063711f87e3146100dc5780637f09d3f3146100fb5780638da5cb5b1461011a575b5f5ffd5b34801561009e575f5ffd5b506100a860025481565b6040519081526020015b60405180910390f35b3480156100c6575f5ffd5b506100da6100d5366004610bf3565b610257565b005b3480156100e7575f5ffd5b506100da6100f6366004610c1e565b6103a8565b348015610106575f5ffd5b506100da610115366004610bf3565b61047f565b348015610125575f5ffd5b505f54610138906001600160a01b031681565b6040516001600160a01b0390911681526020016100b2565b6100da61015e366004610cde565b610611565b34801561016e575f5ffd5b5061018261017d366004610bf3565b6109c9565b6040516100b2959493929190610d4f565b34801561019e575f5ffd5b506100a860015481565b3480156101b3575f5ffd5b506102226101c2366004610bf3565b600460208190525f9182526040909120805460018201546002830154600384015494840154600585015460068601546007870154600888015460099098015496986001600160a01b03968716989590961696939492939192909160ff168a565b6040516100b29a99989796959493929190610d9a565b348015610243575f5ffd5b506100da610252366004610bf3565b610a82565b5f81815260046020526040812080549091036102ab5760405162461bcd60e51b815260206004820152600e60248201526d131bd85b881b9bdd08199bdd5b9960921b60448201526064015b60405180910390fd5b60018101546001600160a01b031633146103075760405162461bcd60e51b815260206004820152601860248201527f4f6e6c7920626f72726f7765722063616e2072657475726e000000000000000060448201526064016102a2565b6001600982015460ff16600481111561032257610322610d86565b146103615760405162461bcd60e51b815260206004820152600f60248201526e4c6f616e206e6f742061637469766560881b60448201526064016102a2565b60098101805460ff191660021790556040518281527f72de9c04247740fb0a9065f32825fd756d7d23ae1f08c09566004b86e454020f906020015b60405180910390a15050565b60018054905f6103b783610e2a565b90915550506040805160a08101825260018054808352602080840188815284860188905260608501879052608085018490525f92835260039091529390208251815592519192919082019061040c9082610ec6565b506040828101516002830155606083015160038301556080909201516004909101805460ff191691151591909117905560015490517f79ce7df5297419e10bc67267aa89d940b83ced5dca1b697190fd2b4ac2861c039161047291869086908690610f81565b60405180910390a1505050565b5f81815260046020526040812080549091036104ce5760405162461bcd60e51b815260206004820152600e60248201526d131bd85b881b9bdd08199bdd5b9960921b60448201526064016102a2565b6002600982015460ff1660048111156104e9576104e9610d86565b146105365760405162461bcd60e51b815260206004820152601d60248201527f4c6f616e206e6f7420726561647920666f7220736574746c656d656e7400000060448201526064016102a2565b60078101546008820154600283015460018401546040516001600160a01b03928316929091169082906108fc8515029085905f818181858888f19350505050158015610584573d5f5f3e3d5ffd5b506040516001600160a01b0382169085156108fc029086905f818181858888f193505050501580156105b8573d5f5f3e3d5ffd5b5060098501805460ff1916600317905560408051878152602081018590529081018590527f613c86aa4dd22c720f141f47bbb334215a0fff4530e0e459d9728dd07e37378d9060600160405180910390a1505050505050565b5f8381526003602052604090206004015460ff166106715760405162461bcd60e51b815260206004820152601860248201527f45717569706d656e74206e6f742072656769737465726564000000000000000060448201526064016102a2565b5f82116106b35760405162461bcd60e51b815260206004820152601060248201526f496e76616c6964207175616e7469747960801b60448201526064016102a2565b5f60035f8581526020019081526020015f206040518060a00160405290815f82015481526020016001820180546106e990610e42565b80601f016020809104026020016040519081016040528092919081815260200182805461071590610e42565b80156107605780601f1061073757610100808354040283529160200191610760565b820191905f5260205f20905b81548152906001019060200180831161074357829003601f168201915b505050918352505060028201546020820152600382015460408083019190915260049092015460ff1615156060909101528101519091505f9083906107a6908690610fac565b6107b09190610fac565b90505f8483606001516107c39190610fac565b90505f6107d08284610fc9565b90508034146108215760405162461bcd60e51b815260206004820152601860248201527f496e636f7272656374206465706f73697420616d6f756e74000000000000000060448201526064016102a2565b60028054905f61083083610e2a565b91905055506040518061014001604052806002548152602001336001600160a01b03168152602001896001600160a01b0316815260200188815260200187815260200142815260200186610e106108879190610fac565b815260208101849052604081018590526060015f9052600280545f908152600460208181526040928390208551815590850151600180830180546001600160a01b039384166001600160a01b0319918216179091559487015195830180549690921695909416949094179093556060840151600384015560808401518382015560a0840151600584015560c0840151600684015560e0840151600784015561010084015160088401556101208401516009840180549193909260ff1990921691849081111561095857610958610d86565b021790555050600254604080519182523360208301526001600160a01b038b1690820152606081018990526080810188905260a081018490527f6850239cc8fa897edd78465a234c3240b84bbfb1c55cac4b85364de88ce71095915060c00160405180910390a15050505050505050565b60036020525f9081526040902080546001820180549192916109ea90610e42565b80601f0160208091040260200160405190810160405280929190818152602001828054610a1690610e42565b8015610a615780601f10610a3857610100808354040283529160200191610a61565b820191905f5260205f20905b815481529060010190602001808311610a4457829003601f168201915b50505050600283015460038401546004909401549293909290915060ff1685565b5f8181526004602052604081208054909103610ad65760405162461bcd60e51b8152602060048201526013602482015272131bd85b88191bd95cc81b9bdd08195e1a5cdd606a1b60448201526064016102a2565b60018101546001600160a01b0316331480610afd575060028101546001600160a01b031633145b610b385760405162461bcd60e51b815260206004820152600c60248201526b155b985d5d1a1bdc9a5e995960a21b60448201526064016102a2565b5f600982015460ff166004811115610b5257610b52610d86565b14610b8f5760405162461bcd60e51b815260206004820152600d60248201526c496e76616c696420737461746560981b60448201526064016102a2565b60098101805460ff191660019081179091558154908201546002830154604080519384526001600160a01b0392831660208501529116908201527fea634bb477ec8c3e3f3b23fc28bb53370eb7d773e08963ed2dc8984058240cf09060600161039c565b5f60208284031215610c03575f5ffd5b5035919050565b634e487b7160e01b5f52604160045260245ffd5b5f5f5f60608486031215610c30575f5ffd5b833567ffffffffffffffff811115610c46575f5ffd5b8401601f81018613610c56575f5ffd5b803567ffffffffffffffff811115610c7057610c70610c0a565b604051601f8201601f19908116603f0116810167ffffffffffffffff81118282101715610c9f57610c9f610c0a565b604052818152828201602001881015610cb6575f5ffd5b816020840160208301375f602092820183015297908601359650604090950135949350505050565b5f5f5f5f60808587031215610cf1575f5ffd5b84356001600160a01b0381168114610d07575f5ffd5b966020860135965060408601359560600135945092505050565b5f81518084528060208401602086015e5f602082860101526020601f19601f83011685010191505092915050565b85815260a060208201525f610d6760a0830187610d21565b6040830195909552506060810192909252151560809091015292915050565b634e487b7160e01b5f52602160045260245ffd5b8a81526001600160a01b038a8116602083015289166040820152606081018890526080810187905260a0810186905260c0810185905260e081018490526101008101839052610140810160058310610e0057634e487b7160e01b5f52602160045260245ffd5b826101208301529b9a5050505050505050505050565b634e487b7160e01b5f52601160045260245ffd5b5f60018201610e3b57610e3b610e16565b5060010190565b600181811c90821680610e5657607f821691505b602082108103610e7457634e487b7160e01b5f52602260045260245ffd5b50919050565b601f821115610ec157805f5260205f20601f840160051c81016020851015610e9f5750805b601f840160051c820191505b81811015610ebe575f8155600101610eab565b50505b505050565b815167ffffffffffffffff811115610ee057610ee0610c0a565b610ef481610eee8454610e42565b84610e7a565b6020601f821160018114610f26575f8315610f0f5750848201515b5f19600385901b1c1916600184901b178455610ebe565b5f84815260208120601f198516915b82811015610f555787850151825560209485019460019092019101610f35565b5084821015610f7257868401515f19600387901b60f8161c191681555b50505050600190811b01905550565b848152608060208201525f610f996080830186610d21565b6040830194909452506060015292915050565b8082028115828204841417610fc357610fc3610e16565b92915050565b80820180821115610fc357610fc3610e1656fea2646970667358221220f3cf2c09d04c614c201d104a89dec14e89b45dc40ba8ce035b4af5fdb76dc02964736f6c634300081c0033",
  "linkReferences": {},
  "deployedLinkReferences": {},
  "immutableReferences": {},
  "inputSourceName": "project/contracts/SanjeevaniEscrow.sol",
  "buildInfoId": "solc-0_8_28-cfddd4091d0f5d7a7b4a1e66d5b81ffac6fd6e39"
}